{
  "contractName": "Network",
  "abi": [
    {
      "constant": false,
      "inputs": [
        {
          "internalType": "address payable",
          "name": "_receiver",
          "type": "address"
        }
      ],
      "name": "sendAuthorizationEther",
      "outputs": [],
      "payable": false,
      "stateMutability": "nonpayable",
      "type": "function"
    },
    {
      "constant": true,
      "inputs": [
        {
          "internalType": "string",
          "name": "_address",
          "type": "string"
        }
      ],
      "name": "isValidPatient",
      "outputs": [
        {
          "internalType": "bool",
          "name": "",
          "type": "bool"
        }
      ],
      "payable": false,
      "stateMutability": "view",
      "type": "function"
    },
    {
      "constant": true,
      "inputs": [
        {
          "internalType": "string",
          "name": "_address",
          "type": "string"
        }
      ],
      "name": "isValidPhysician",
      "outputs": [
        {
          "internalType": "bool",
          "name": "",
          "type": "bool"
        }
      ],
      "payable": false,
      "stateMutability": "view",
      "type": "function"
    },
    {
      "constant": true,
      "inputs": [],
      "name": "getUserType",
      "outputs": [
        {
          "internalType": "uint256",
          "name": "",
          "type": "uint256"
        }
      ],
      "payable": false,
      "stateMutability": "view",
      "type": "function"
    },
    {
      "constant": true,
      "inputs": [
        {
          "internalType": "string",
          "name": "_requester",
          "type": "string"
        },
        {
          "internalType": "string",
          "name": "_patient",
          "type": "string"
        }
      ],
      "name": "isAuthorized",
      "outputs": [
        {
          "internalType": "bool",
          "name": "",
          "type": "bool"
        }
      ],
      "payable": false,
      "stateMutability": "view",
      "type": "function"
    },
    {
      "constant": false,
      "inputs": [
        {
          "internalType": "string",
          "name": "_address",
          "type": "string"
        },
        {
          "internalType": "uint256",
          "name": "_DOB",
          "type": "uint256"
        },
        {
          "internalType": "uint256",
          "name": "_employedSince",
          "type": "uint256"
        }
      ],
      "name": "registerPhysician",
      "outputs": [],
      "payable": true,
      "stateMutability": "payable",
      "type": "function"
    },
    {
      "constant": false,
      "inputs": [
        {
          "internalType": "string",
          "name": "_address",
          "type": "string"
        },
        {
          "internalType": "uint256",
          "name": "_DOB",
          "type": "uint256"
        },
        {
          "internalType": "uint256",
          "name": "_bloodGrp",
          "type": "uint256"
        },
        {
          "internalType": "uint256",
          "name": "_height",
          "type": "uint256"
        },
        {
          "internalType": "uint256",
          "name": "_weight",
          "type": "uint256"
        }
      ],
      "name": "registerPatient",
      "outputs": [],
      "payable": true,
      "stateMutability": "payable",
      "type": "function"
    },
    {
      "constant": false,
      "inputs": [
        {
          "internalType": "string",
          "name": "pId",
          "type": "string"
        },
        {
          "internalType": "string",
          "name": "patId",
          "type": "string"
        },
        {
          "internalType": "address payable",
          "name": "_pId",
          "type": "address"
        }
      ],
      "name": "authorizePhysician",
      "outputs": [],
      "payable": true,
      "stateMutability": "payable",
      "type": "function"
    },
    {
      "constant": false,
      "inputs": [
        {
          "internalType": "string",
          "name": "pId",
          "type": "string"
        },
        {
          "internalType": "string",
          "name": "patId",
          "type": "string"
        }
      ],
      "name": "removeAuthorization",
      "outputs": [],
      "payable": false,
      "stateMutability": "nonpayable",
      "type": "function"
    },
    {
      "constant": true,
      "inputs": [
        {
          "internalType": "string",
          "name": "_address",
          "type": "string"
        }
      ],
      "name": "getPatient",
      "outputs": [
        {
          "components": [
            {
              "internalType": "address",
              "name": "id",
              "type": "address"
            },
            {
              "internalType": "uint256",
              "name": "DOB",
              "type": "uint256"
            },
            {
              "internalType": "uint256",
              "name": "bloodGrp",
              "type": "uint256"
            },
            {
              "internalType": "uint256",
              "name": "height",
              "type": "uint256"
            },
            {
              "internalType": "uint256",
              "name": "weight",
              "type": "uint256"
            },
            {
              "internalType": "uint256",
              "name": "currentRecord",
              "type": "uint256"
            },
            {
              "internalType": "uint256",
              "name": "recordsCount",
              "type": "uint256"
            },
            {
              "internalType": "bool",
              "name": "is_valid",
              "type": "bool"
            },
            {
              "components": [
                {
                  "internalType": "uint256",
                  "name": "id",
                  "type": "uint256"
                },
                {
                  "internalType": "uint256",
                  "name": "date_time",
                  "type": "uint256"
                },
                {
                  "internalType": "address",
                  "name": "phyicianRef",
                  "type": "address"
                },
                {
                  "internalType": "string",
                  "name": "description",
                  "type": "string"
                },
                {
                  "internalType": "bool",
                  "name": "is_fault",
                  "type": "bool"
                },
                {
                  "internalType": "uint256[]",
                  "name": "symptoms",
                  "type": "uint256[]"
                }
              ],
              "internalType": "struct Network.Record[]",
              "name": "records",
              "type": "tuple[]"
            }
          ],
          "internalType": "struct Network.Patient",
          "name": "",
          "type": "tuple"
        }
      ],
      "payable": false,
      "stateMutability": "view",
      "type": "function"
    },
    {
      "constant": true,
      "inputs": [
        {
          "internalType": "string",
          "name": "_pId",
          "type": "string"
        }
      ],
      "name": "getPhysician",
      "outputs": [
        {
          "components": [
            {
              "internalType": "address",
              "name": "id",
              "type": "address"
            },
            {
              "internalType": "uint256",
              "name": "DOB",
              "type": "uint256"
            },
            {
              "internalType": "uint256",
              "name": "employedSince",
              "type": "uint256"
            },
            {
              "internalType": "bool",
              "name": "is_valid",
              "type": "bool"
            },
            {
              "internalType": "uint256",
              "name": "totalPatients",
              "type": "uint256"
            },
            {
              "internalType": "address[]",
              "name": "patients",
              "type": "address[]"
            }
          ],
          "internalType": "struct Network.Physician",
          "name": "",
          "type": "tuple"
        }
      ],
      "payable": false,
      "stateMutability": "view",
      "type": "function"
    },
    {
      "constant": false,
      "inputs": [
        {
          "internalType": "string",
          "name": "_patId",
          "type": "string"
        }
      ],
      "name": "deactivatePatient",
      "outputs": [],
      "payable": false,
      "stateMutability": "nonpayable",
      "type": "function"
    },
    {
      "constant": false,
      "inputs": [
        {
          "internalType": "string",
          "name": "_pId",
          "type": "string"
        }
      ],
      "name": "deactivatePhysician",
      "outputs": [],
      "payable": false,
      "stateMutability": "nonpayable",
      "type": "function"
    },
    {
      "constant": false,
      "inputs": [
        {
          "internalType": "uint256",
          "name": "_d_t",
          "type": "uint256"
        },
        {
          "internalType": "string",
          "name": "_d",
          "type": "string"
        },
        {
          "internalType": "uint256[]",
          "name": "_sym",
          "type": "uint256[]"
        },
        {
          "internalType": "string",
          "name": "_patId",
          "type": "string"
        },
        {
          "internalType": "string",
          "name": "_pId",
          "type": "string"
        }
      ],
      "name": "addRecord",
      "outputs": [],
      "payable": true,
      "stateMutability": "payable",
      "type": "function"
    },
    {
      "constant": false,
      "inputs": [
        {
          "internalType": "uint256",
          "name": "_id",
          "type": "uint256"
        },
        {
          "internalType": "string",
          "name": "_d",
          "type": "string"
        },
        {
          "internalType": "uint256[]",
          "name": "_sym",
          "type": "uint256[]"
        },
        {
          "internalType": "string",
          "name": "_patId",
          "type": "string"
        },
        {
          "internalType": "string",
          "name": "_pId",
          "type": "string"
        }
      ],
      "name": "updateRecord",
      "outputs": [],
      "payable": true,
      "stateMutability": "payable",
      "type": "function"
    },
    {
      "constant": false,
      "inputs": [
        {
          "internalType": "string",
          "name": "_patId",
          "type": "string"
        },
        {
          "internalType": "string",
          "name": "_pId",
          "type": "string"
        },
        {
          "internalType": "uint256",
          "name": "recId",
          "type": "uint256"
        }
      ],
      "name": "setRecordFault",
      "outputs": [],
      "payable": true,
      "stateMutability": "payable",
      "type": "function"
    },
    {
      "constant": true,
      "inputs": [
        {
          "internalType": "string",
          "name": "_patId",
          "type": "string"
        }
      ],
      "name": "getRecordsCount",
      "outputs": [
        {
          "internalType": "uint256",
          "name": "",
          "type": "uint256"
        }
      ],
      "payable": false,
      "stateMutability": "view",
      "type": "function"
    },
    {
      "constant": true,
      "inputs": [
        {
          "internalType": "string",
          "name": "_patId",
          "type": "string"
        },
        {
          "internalType": "uint256",
          "name": "recId",
          "type": "uint256"
        }
      ],
      "name": "getRecord",
      "outputs": [
        {
          "components": [
            {
              "internalType": "uint256",
              "name": "id",
              "type": "uint256"
            },
            {
              "internalType": "uint256",
              "name": "date_time",
              "type": "uint256"
            },
            {
              "internalType": "address",
              "name": "phyicianRef",
              "type": "address"
            },
            {
              "internalType": "string",
              "name": "description",
              "type": "string"
            },
            {
              "internalType": "bool",
              "name": "is_fault",
              "type": "bool"
            },
            {
              "internalType": "uint256[]",
              "name": "symptoms",
              "type": "uint256[]"
            }
          ],
          "internalType": "struct Network.Record",
          "name": "",
          "type": "tuple"
        }
      ],
      "payable": false,
      "stateMutability": "view",
      "type": "function"
    },
    {
      "constant": true,
      "inputs": [],
      "name": "getTotalPhysicians",
      "outputs": [
        {
          "internalType": "uint256",
          "name": "",
          "type": "uint256"
        }
      ],
      "payable": false,
      "stateMutability": "view",
      "type": "function"
    },
    {
      "constant": true,
      "inputs": [],
      "name": "getTotalPatients",
      "outputs": [
        {
          "internalType": "uint256",
          "name": "",
          "type": "uint256"
        }
      ],
      "payable": false,
      "stateMutability": "view",
      "type": "function"
    },
    {
      "constant": true,
      "inputs": [],
      "name": "getTotalFaultRecords",
      "outputs": [
        {
          "internalType": "uint256",
          "name": "",
          "type": "uint256"
        }
      ],
      "payable": false,
      "stateMutability": "view",
      "type": "function"
    },
    {
      "constant": true,
      "inputs": [],
      "name": "getTotalRecords",
      "outputs": [
        {
          "internalType": "uint256",
          "name": "",
          "type": "uint256"
        }
      ],
      "payable": false,
      "stateMutability": "view",
      "type": "function"
    }
  ],
  "bytecode": "0x60806040526000805560006001556000600255600060035560006004556000600555662386f26fc100006009556658d15e17628000600a556611c37937e08000600b55670214e8348c4f0000600c556703782dace9d90000600d5534801561006657600080fd5b5061497b806100766000396000f3fe6080604052600436106101355760003560e01c80638ce55dd7116100ab578063bce3734c1161006f578063bce3734c14610416578063de607ceb14610432578063e79a7a2e1461045b578063f01c0fe914610498578063f2541998146104b4578063f497e189146104dd57610135565b80638ce55dd71461032c57806391eaa0d114610355578063b01eabc514610380578063b249887d1461039c578063bc60f6a1146103d957610135565b806341990077116100fd57806341990077146102475780635e4512b814610272578063720457d51461028e57806378fa922a146102aa5780637f07a25d146102c6578063859e6e9f146102ef57610135565b80630a76c7b81461013a5780630aeacb5e14610177578063189eaef9146101a25780633929e70e146101df5780633ffeb8f61461021c575b600080fd5b34801561014657600080fd5b50610161600480360361015c91908101906134b5565b610508565b60405161016e919061468f565b60405180910390f35b34801561018357600080fd5b5061018c610751565b60405161019991906146d3565b60405180910390f35b3480156101ae57600080fd5b506101c960048036036101c491908101906134b5565b61075b565b6040516101d691906146d3565b60405180910390f35b3480156101eb57600080fd5b50610206600480360361020191908101906134f6565b6107ea565b60405161021391906143d2565b60405180910390f35b34801561022857600080fd5b50610231610aec565b60405161023e91906146d3565b60405180910390f35b34801561025357600080fd5b5061025c610af6565b60405161026991906146d3565b60405180910390f35b61028c600480360361028791908101906135e1565b610bbc565b005b6102a860048036036102a391908101906137aa565b610f2c565b005b6102c460048036036102bf919081019061371b565b6113ca565b005b3480156102d257600080fd5b506102ed60048036036102e8919081019061348c565b61182c565b005b3480156102fb57600080fd5b50610316600480360361031191908101906134b5565b61187d565b60405161032391906143d2565b60405180910390f35b34801561033857600080fd5b50610353600480360361034e91908101906134b5565b611919565b005b34801561036157600080fd5b5061036a611b3f565b60405161037791906146d3565b60405180910390f35b61039a600480360361039591908101906137aa565b611b48565b005b3480156103a857600080fd5b506103c360048036036103be91908101906134b5565b611e18565b6040516103d091906143d2565b60405180910390f35b3480156103e557600080fd5b5061040060048036036103fb9190810190613660565b611eb4565b60405161040d91906146b1565b60405180910390f35b610430600480360361042b91908101906136b4565b6120ed565b005b34801561043e57600080fd5b50610459600480360361045491908101906134b5565b612476565b005b34801561046757600080fd5b50610482600480360361047d91908101906134b5565b61269b565b60405161048f919061466d565b60405180910390f35b6104b260048036036104ad9190810190613562565b612a53565b005b3480156104c057600080fd5b506104db60048036036104d691908101906134f6565b612d43565b005b3480156104e957600080fd5b506104f26130c2565b6040516104ff91906146d3565b60405180910390f35b6105106130cc565b600060088360405161052291906143bb565b908152602001604051809103902060009054906101000a900473ffffffffffffffffffffffffffffffffffffffff169050600760008273ffffffffffffffffffffffffffffffffffffffff1673ffffffffffffffffffffffffffffffffffffffff16815260200190815260200160002060030160009054906101000a900460ff166105e2576040517f08c379a00000000000000000000000000000000000000000000000000000000081526004016105d99061458d565b60405180910390fd5b600760008273ffffffffffffffffffffffffffffffffffffffff1673ffffffffffffffffffffffffffffffffffffffff1681526020019081526020016000206040518060c00160405290816000820160009054906101000a900473ffffffffffffffffffffffffffffffffffffffff1673ffffffffffffffffffffffffffffffffffffffff1673ffffffffffffffffffffffffffffffffffffffff16815260200160018201548152602001600282015481526020016003820160009054906101000a900460ff16151515158152602001600482015481526020016005820180548060200260200160405190810160405280929190818152602001828054801561074057602002820191906000526020600020905b8160009054906101000a900473ffffffffffffffffffffffffffffffffffffffff1673ffffffffffffffffffffffffffffffffffffffff16815260200190600101908083116106f6575b505050505081525050915050919050565b6000600454905090565b60008060088360405161076e91906143bb565b908152602001604051809103902060009054906101000a900473ffffffffffffffffffffffffffffffffffffffff169050600660008273ffffffffffffffffffffffffffffffffffffffff1673ffffffffffffffffffffffffffffffffffffffff16815260200190815260200160002060060154915050919050565b6000806008846040516107fd91906143bb565b908152602001604051809103902060009054906101000a900473ffffffffffffffffffffffffffffffffffffffff169050600060088460405161084091906143bb565b908152602001604051809103902060009054906101000a900473ffffffffffffffffffffffffffffffffffffffff169050600760008373ffffffffffffffffffffffffffffffffffffffff1673ffffffffffffffffffffffffffffffffffffffff16815260200190815260200160002060030160009054906101000a900460ff16610900576040517f08c379a00000000000000000000000000000000000000000000000000000000081526004016108f79061442d565b60405180910390fd5b8173ffffffffffffffffffffffffffffffffffffffff163373ffffffffffffffffffffffffffffffffffffffff161461096e576040517f08c379a00000000000000000000000000000000000000000000000000000000081526004016109659061440d565b60405180910390fd5b600760008373ffffffffffffffffffffffffffffffffffffffff1673ffffffffffffffffffffffffffffffffffffffff16815260200190815260200160002060030160009054906101000a900460ff1615610ae35760008090505b600760008473ffffffffffffffffffffffffffffffffffffffff1673ffffffffffffffffffffffffffffffffffffffff16815260200190815260200160002060040154811015610ad7578173ffffffffffffffffffffffffffffffffffffffff16600760008573ffffffffffffffffffffffffffffffffffffffff1673ffffffffffffffffffffffffffffffffffffffff1681526020019081526020016000206005018281548110610a7757fe5b9060005260206000200160009054906101000a900473ffffffffffffffffffffffffffffffffffffffff1673ffffffffffffffffffffffffffffffffffffffff161415610aca5760019350505050610ae6565b80806001019150506109c9565b50600092505050610ae6565b50505b92915050565b6000600554905090565b6000600660003373ffffffffffffffffffffffffffffffffffffffff1673ffffffffffffffffffffffffffffffffffffffff16815260200190815260200160002060070160009054906101000a900460ff1615610b565760009050610bb9565b600760003373ffffffffffffffffffffffffffffffffffffffff1673ffffffffffffffffffffffffffffffffffffffff16815260200190815260200160002060030160009054906101000a900460ff1615610bb45760019050610bb9565b600290505b90565b6000600884604051610bce91906143bb565b908152602001604051809103902060009054906101000a900473ffffffffffffffffffffffffffffffffffffffff1690506000600884604051610c1191906143bb565b908152602001604051809103902060009054906101000a900473ffffffffffffffffffffffffffffffffffffffff1690508073ffffffffffffffffffffffffffffffffffffffff163373ffffffffffffffffffffffffffffffffffffffff1614610cb0576040517f08c379a0000000000000000000000000000000000000000000000000000000008152600401610ca79061448d565b60405180910390fd5b600660008373ffffffffffffffffffffffffffffffffffffffff1673ffffffffffffffffffffffffffffffffffffffff16815260200190815260200160002060070160009054906101000a900460ff16610d3f576040517f08c379a0000000000000000000000000000000000000000000000000000000008152600401610d369061456d565b60405180910390fd5b600b543414610d83576040517f08c379a0000000000000000000000000000000000000000000000000000000008152600401610d7a906145cd565b60405180910390fd5b600660008373ffffffffffffffffffffffffffffffffffffffff1673ffffffffffffffffffffffffffffffffffffffff1681526020019081526020016000206008018381548110610dd057fe5b906000526020600020906006020160040160009054906101000a900460ff1615610e2f576040517f08c379a0000000000000000000000000000000000000000000000000000000008152600401610e269061450d565b60405180910390fd5b610e3984866107ea565b15610f25576001600660008473ffffffffffffffffffffffffffffffffffffffff1673ffffffffffffffffffffffffffffffffffffffff1681526020019081526020016000206008018481548110610e8d57fe5b906000526020600020906006020160040160006101000a81548160ff021916908315150217905550600660008373ffffffffffffffffffffffffffffffffffffffff1673ffffffffffffffffffffffffffffffffffffffff1681526020019081526020016000206006016000815480929190600190039190505550600560008154809291906001019190505550610f248486612d43565b5b5050505050565b6000600883604051610f3e91906143bb565b908152602001604051809103902060009054906101000a900473ffffffffffffffffffffffffffffffffffffffff1690506000600883604051610f8191906143bb565b908152602001604051809103902060009054906101000a900473ffffffffffffffffffffffffffffffffffffffff1690508073ffffffffffffffffffffffffffffffffffffffff163373ffffffffffffffffffffffffffffffffffffffff1614611020576040517f08c379a0000000000000000000000000000000000000000000000000000000008152600401611017906145ed565b60405180910390fd5b600660008373ffffffffffffffffffffffffffffffffffffffff1673ffffffffffffffffffffffffffffffffffffffff16815260200190815260200160002060070160009054906101000a900460ff166110af576040517f08c379a00000000000000000000000000000000000000000000000000000000081526004016110a69061456d565b60405180910390fd5b60095434146110f3576040517f08c379a00000000000000000000000000000000000000000000000000000000081526004016110ea906145ad565b60405180910390fd5b6110fd83856107ea565b15611386576000600660008473ffffffffffffffffffffffffffffffffffffffff1673ffffffffffffffffffffffffffffffffffffffff16815260200190815260200160002060050154905061115161311a565b6040518060c001604052808381526020018a81526020018473ffffffffffffffffffffffffffffffffffffffff168152602001898152602001600015158152602001888152509050600660008573ffffffffffffffffffffffffffffffffffffffff1673ffffffffffffffffffffffffffffffffffffffff1681526020019081526020016000206008018190806001815401808255809150509060018203906000526020600020906006020160009091929091909150600082015181600001556020820151816001015560408201518160020160006101000a81548173ffffffffffffffffffffffffffffffffffffffff021916908373ffffffffffffffffffffffffffffffffffffffff160217905550606082015181600301908051906020019061127e929190613168565b5060808201518160040160006101000a81548160ff02191690831515021790555060a08201518160050190805190602001906112bb9291906131e8565b50505050600660008573ffffffffffffffffffffffffffffffffffffffff1673ffffffffffffffffffffffffffffffffffffffff16815260200190815260200160002060050160008154809291906001019190505550600660008573ffffffffffffffffffffffffffffffffffffffff1673ffffffffffffffffffffffffffffffffffffffff1681526020019081526020016000206006016000815480929190600101919050555060046000815480929190600101919050555061137f8587612d43565b50506113c1565b6040517f08c379a00000000000000000000000000000000000000000000000000000000081526004016113b8906144cd565b60405180910390fd5b50505050505050565b600660003373ffffffffffffffffffffffffffffffffffffffff1673ffffffffffffffffffffffffffffffffffffffff16815260200190815260200160002060070160009054906101000a900460ff161561145a576040517f08c379a00000000000000000000000000000000000000000000000000000000081526004016114519061444d565b60405180910390fd5b600760003373ffffffffffffffffffffffffffffffffffffffff1673ffffffffffffffffffffffffffffffffffffffff16815260200190815260200160002060030160009054906101000a900460ff16156114ea576040517f08c379a00000000000000000000000000000000000000000000000000000000081526004016114e1906144ed565b60405180910390fd5b600c54341461152e576040517f08c379a00000000000000000000000000000000000000000000000000000000081526004016115259061460d565b60405180910390fd5b33600660003373ffffffffffffffffffffffffffffffffffffffff1673ffffffffffffffffffffffffffffffffffffffff16815260200190815260200160002060000160006101000a81548173ffffffffffffffffffffffffffffffffffffffff021916908373ffffffffffffffffffffffffffffffffffffffff16021790555083600660003373ffffffffffffffffffffffffffffffffffffffff1673ffffffffffffffffffffffffffffffffffffffff1681526020019081526020016000206001018190555082600660003373ffffffffffffffffffffffffffffffffffffffff1673ffffffffffffffffffffffffffffffffffffffff1681526020019081526020016000206002018190555081600660003373ffffffffffffffffffffffffffffffffffffffff1673ffffffffffffffffffffffffffffffffffffffff1681526020019081526020016000206003018190555080600660003373ffffffffffffffffffffffffffffffffffffffff1673ffffffffffffffffffffffffffffffffffffffff168152602001908152602001600020600401819055506001600660003373ffffffffffffffffffffffffffffffffffffffff1673ffffffffffffffffffffffffffffffffffffffff16815260200190815260200160002060070160006101000a81548160ff0219169083151502179055506000600660003373ffffffffffffffffffffffffffffffffffffffff1673ffffffffffffffffffffffffffffffffffffffff168152602001908152602001600020600501819055506000600660003373ffffffffffffffffffffffffffffffffffffffff1673ffffffffffffffffffffffffffffffffffffffff16815260200190815260200160002060060181905550600160008154809291906001019190505550336008866040516117d991906143bb565b908152602001604051809103902060006101000a81548173ffffffffffffffffffffffffffffffffffffffff021916908373ffffffffffffffffffffffffffffffffffffffff1602179055505050505050565b8073ffffffffffffffffffffffffffffffffffffffff166108fc6658d15e176280009081150290604051600060405180830381858888f19350505050158015611879573d6000803e3d6000fd5b5050565b60008060088360405161189091906143bb565b908152602001604051809103902060009054906101000a900473ffffffffffffffffffffffffffffffffffffffff169050600660008273ffffffffffffffffffffffffffffffffffffffff1673ffffffffffffffffffffffffffffffffffffffff16815260200190815260200160002060070160009054906101000a900460ff16915050919050565b600060088260405161192b91906143bb565b908152602001604051809103902060009054906101000a900473ffffffffffffffffffffffffffffffffffffffff1690503373ffffffffffffffffffffffffffffffffffffffff16600660008373ffffffffffffffffffffffffffffffffffffffff1673ffffffffffffffffffffffffffffffffffffffff16815260200190815260200160002060000160009054906101000a900473ffffffffffffffffffffffffffffffffffffffff1673ffffffffffffffffffffffffffffffffffffffff1614611a2c576040517f08c379a0000000000000000000000000000000000000000000000000000000008152600401611a239061452d565b60405180910390fd5b600660008273ffffffffffffffffffffffffffffffffffffffff1673ffffffffffffffffffffffffffffffffffffffff16815260200190815260200160002060070160009054906101000a900460ff16611abb576040517f08c379a0000000000000000000000000000000000000000000000000000000008152600401611ab29061446d565b60405180910390fd5b6000600660008373ffffffffffffffffffffffffffffffffffffffff1673ffffffffffffffffffffffffffffffffffffffff16815260200190815260200160002060070160006101000a81548160ff021916908315150217905550600360008154809291906001019190505550600160008154809291906001900391905055505050565b60008054905090565b6000600883604051611b5a91906143bb565b908152602001604051809103902060009054906101000a900473ffffffffffffffffffffffffffffffffffffffff1690506000600883604051611b9d91906143bb565b908152602001604051809103902060009054906101000a900473ffffffffffffffffffffffffffffffffffffffff1690508073ffffffffffffffffffffffffffffffffffffffff163373ffffffffffffffffffffffffffffffffffffffff1614611c3c576040517f08c379a0000000000000000000000000000000000000000000000000000000008152600401611c33906145ed565b60405180910390fd5b600660008373ffffffffffffffffffffffffffffffffffffffff1673ffffffffffffffffffffffffffffffffffffffff16815260200190815260200160002060070160009054906101000a900460ff16611ccb576040517f08c379a0000000000000000000000000000000000000000000000000000000008152600401611cc29061456d565b60405180910390fd5b600b543414611d0f576040517f08c379a0000000000000000000000000000000000000000000000000000000008152600401611d06906145cd565b60405180910390fd5b611d1983856107ea565b15611e0f5784600660008473ffffffffffffffffffffffffffffffffffffffff1673ffffffffffffffffffffffffffffffffffffffff1681526020019081526020016000206008018881548110611d6c57fe5b90600052602060002090600602016005019080519060200190611d90929190613235565b5085600660008473ffffffffffffffffffffffffffffffffffffffff1673ffffffffffffffffffffffffffffffffffffffff1681526020019081526020016000206008018881548110611ddf57fe5b90600052602060002090600602016003019080519060200190611e03929190613282565b50611e0e8385612d43565b5b50505050505050565b600080600883604051611e2b91906143bb565b908152602001604051809103902060009054906101000a900473ffffffffffffffffffffffffffffffffffffffff169050600760008273ffffffffffffffffffffffffffffffffffffffff1673ffffffffffffffffffffffffffffffffffffffff16815260200190815260200160002060030160009054906101000a900460ff16915050919050565b611ebc61311a565b6000600884604051611ece91906143bb565b908152602001604051809103902060009054906101000a900473ffffffffffffffffffffffffffffffffffffffff169050600660008273ffffffffffffffffffffffffffffffffffffffff1673ffffffffffffffffffffffffffffffffffffffff1681526020019081526020016000206008018381548110611f4c57fe5b90600052602060002090600602016040518060c001604052908160008201548152602001600182015481526020016002820160009054906101000a900473ffffffffffffffffffffffffffffffffffffffff1673ffffffffffffffffffffffffffffffffffffffff1673ffffffffffffffffffffffffffffffffffffffff168152602001600382018054600181600116156101000203166002900480601f0160208091040260200160405190810160405280929190818152602001828054600181600116156101000203166002900480156120685780601f1061203d57610100808354040283529160200191612068565b820191906000526020600020905b81548152906001019060200180831161204b57829003601f168201915b505050505081526020016004820160009054906101000a900460ff16151515158152602001600582018054806020026020016040519081016040528092919081815260200182805480156120db57602002820191906000526020600020905b8154815260200190600101908083116120c7575b50505050508152505091505092915050565b600660003373ffffffffffffffffffffffffffffffffffffffff1673ffffffffffffffffffffffffffffffffffffffff16815260200190815260200160002060070160009054906101000a900460ff161561217d576040517f08c379a00000000000000000000000000000000000000000000000000000000081526004016121749061444d565b60405180910390fd5b600760003373ffffffffffffffffffffffffffffffffffffffff1673ffffffffffffffffffffffffffffffffffffffff16815260200190815260200160002060030160009054906101000a900460ff161561220d576040517f08c379a0000000000000000000000000000000000000000000000000000000008152600401612204906144ed565b60405180910390fd5b600d543414612251576040517f08c379a00000000000000000000000000000000000000000000000000000000081526004016122489061464d565b60405180910390fd5b33600760003373ffffffffffffffffffffffffffffffffffffffff1673ffffffffffffffffffffffffffffffffffffffff16815260200190815260200160002060000160006101000a81548173ffffffffffffffffffffffffffffffffffffffff021916908373ffffffffffffffffffffffffffffffffffffffff16021790555081600760003373ffffffffffffffffffffffffffffffffffffffff1673ffffffffffffffffffffffffffffffffffffffff1681526020019081526020016000206001018190555080600760003373ffffffffffffffffffffffffffffffffffffffff1673ffffffffffffffffffffffffffffffffffffffff168152602001908152602001600020600201819055506001600760003373ffffffffffffffffffffffffffffffffffffffff1673ffffffffffffffffffffffffffffffffffffffff16815260200190815260200160002060030160006101000a81548160ff0219169083151502179055506000600760003373ffffffffffffffffffffffffffffffffffffffff1673ffffffffffffffffffffffffffffffffffffffff1681526020019081526020016000206004018190555060008081548092919060010191905055503360088460405161242591906143bb565b908152602001604051809103902060006101000a81548173ffffffffffffffffffffffffffffffffffffffff021916908373ffffffffffffffffffffffffffffffffffffffff160217905550505050565b600060088260405161248891906143bb565b908152602001604051809103902060009054906101000a900473ffffffffffffffffffffffffffffffffffffffff1690503373ffffffffffffffffffffffffffffffffffffffff16600760008373ffffffffffffffffffffffffffffffffffffffff1673ffffffffffffffffffffffffffffffffffffffff16815260200190815260200160002060000160009054906101000a900473ffffffffffffffffffffffffffffffffffffffff1673ffffffffffffffffffffffffffffffffffffffff1614612589576040517f08c379a00000000000000000000000000000000000000000000000000000000081526004016125809061452d565b60405180910390fd5b600760008273ffffffffffffffffffffffffffffffffffffffff1673ffffffffffffffffffffffffffffffffffffffff16815260200190815260200160002060030160009054906101000a900460ff16612618576040517f08c379a000000000000000000000000000000000000000000000000000000000815260040161260f9061446d565b60405180910390fd5b6000600760008373ffffffffffffffffffffffffffffffffffffffff1673ffffffffffffffffffffffffffffffffffffffff16815260200190815260200160002060030160006101000a81548160ff0219169083151502179055506002600081548092919060010191905055506000808154809291906001900391905055505050565b6126a3613302565b60006008836040516126b591906143bb565b908152602001604051809103902060009054906101000a900473ffffffffffffffffffffffffffffffffffffffff169050600660008273ffffffffffffffffffffffffffffffffffffffff1673ffffffffffffffffffffffffffffffffffffffff16815260200190815260200160002060070160009054906101000a900460ff16612775576040517f08c379a000000000000000000000000000000000000000000000000000000000815260040161276c9061458d565b60405180910390fd5b600660008273ffffffffffffffffffffffffffffffffffffffff1673ffffffffffffffffffffffffffffffffffffffff168152602001908152602001600020604051806101200160405290816000820160009054906101000a900473ffffffffffffffffffffffffffffffffffffffff1673ffffffffffffffffffffffffffffffffffffffff1673ffffffffffffffffffffffffffffffffffffffff1681526020016001820154815260200160028201548152602001600382015481526020016004820154815260200160058201548152602001600682015481526020016007820160009054906101000a900460ff1615151515815260200160088201805480602002602001604051908101604052809291908181526020016000905b82821015612a4357838290600052602060002090600602016040518060c001604052908160008201548152602001600182015481526020016002820160009054906101000a900473ffffffffffffffffffffffffffffffffffffffff1673ffffffffffffffffffffffffffffffffffffffff1673ffffffffffffffffffffffffffffffffffffffff168152602001600382018054600181600116156101000203166002900480601f0160208091040260200160405190810160405280929190818152602001828054600181600116156101000203166002900480156129b85780601f1061298d576101008083540402835291602001916129b8565b820191906000526020600020905b81548152906001019060200180831161299b57829003601f168201915b505050505081526020016004820160009054906101000a900460ff1615151515815260200160058201805480602002602001604051908101604052809291908181526020018280548015612a2b57602002820191906000526020600020905b815481526020019060010190808311612a17575b50505050508152505081526020019060010190612892565b5050505081525050915050919050565b6000600884604051612a6591906143bb565b908152602001604051809103902060009054906101000a900473ffffffffffffffffffffffffffffffffffffffff1690506000600884604051612aa891906143bb565b908152602001604051809103902060009054906101000a900473ffffffffffffffffffffffffffffffffffffffff169050600760008373ffffffffffffffffffffffffffffffffffffffff1673ffffffffffffffffffffffffffffffffffffffff16815260200190815260200160002060030160009054906101000a900460ff16612b68576040517f08c379a0000000000000000000000000000000000000000000000000000000008152600401612b5f906144ad565b60405180910390fd5b600660008273ffffffffffffffffffffffffffffffffffffffff1673ffffffffffffffffffffffffffffffffffffffff16815260200190815260200160002060070160009054906101000a900460ff16612bf7576040517f08c379a0000000000000000000000000000000000000000000000000000000008152600401612bee906143ed565b60405180910390fd5b600a543414612c3b576040517f08c379a0000000000000000000000000000000000000000000000000000000008152600401612c329061462d565b60405180910390fd5b600760008373ffffffffffffffffffffffffffffffffffffffff1673ffffffffffffffffffffffffffffffffffffffff1681526020019081526020016000206005018190806001815401808255809150509060018203906000526020600020016000909192909190916101000a81548173ffffffffffffffffffffffffffffffffffffffff021916908373ffffffffffffffffffffffffffffffffffffffff16021790555050600760008373ffffffffffffffffffffffffffffffffffffffff1673ffffffffffffffffffffffffffffffffffffffff16815260200190815260200160002060040160008154809291906001019190505550612d3c8361182c565b5050505050565b6000600883604051612d5591906143bb565b908152602001604051809103902060009054906101000a900473ffffffffffffffffffffffffffffffffffffffff1690506000600883604051612d9891906143bb565b908152602001604051809103902060009054906101000a900473ffffffffffffffffffffffffffffffffffffffff169050600760008373ffffffffffffffffffffffffffffffffffffffff1673ffffffffffffffffffffffffffffffffffffffff16815260200190815260200160002060030160009054906101000a900460ff16612e58576040517f08c379a0000000000000000000000000000000000000000000000000000000008152600401612e4f906144ad565b60405180910390fd5b600660008273ffffffffffffffffffffffffffffffffffffffff1673ffffffffffffffffffffffffffffffffffffffff16815260200190815260200160002060070160009054906101000a900460ff16612ee7576040517f08c379a0000000000000000000000000000000000000000000000000000000008152600401612ede906143ed565b60405180910390fd5b612ef184846107ea565b612f30576040517f08c379a0000000000000000000000000000000000000000000000000000000008152600401612f279061454d565b60405180910390fd5b60008090505b600760008473ffffffffffffffffffffffffffffffffffffffff1673ffffffffffffffffffffffffffffffffffffffff168152602001908152602001600020600401548110156130ba578173ffffffffffffffffffffffffffffffffffffffff16600760008573ffffffffffffffffffffffffffffffffffffffff1673ffffffffffffffffffffffffffffffffffffffff1681526020019081526020016000206005018281548110612fe457fe5b9060005260206000200160009054906101000a900473ffffffffffffffffffffffffffffffffffffffff1673ffffffffffffffffffffffffffffffffffffffff1614156130ad57600760008473ffffffffffffffffffffffffffffffffffffffff1673ffffffffffffffffffffffffffffffffffffffff168152602001908152602001600020600501818154811061307857fe5b9060005260206000200160006101000a81549073ffffffffffffffffffffffffffffffffffffffff02191690555050506130be565b8080600101915050612f36565b5050505b5050565b6000600154905090565b6040518060c00160405280600073ffffffffffffffffffffffffffffffffffffffff168152602001600081526020016000815260200160001515815260200160008152602001606081525090565b6040518060c001604052806000815260200160008152602001600073ffffffffffffffffffffffffffffffffffffffff16815260200160608152602001600015158152602001606081525090565b828054600181600116156101000203166002900490600052602060002090601f016020900481019282601f106131a957805160ff19168380011785556131d7565b828001600101855582156131d7579182015b828111156131d65782518255916020019190600101906131bb565b5b5090506131e49190613366565b5090565b828054828255906000526020600020908101928215613224579160200282015b82811115613223578251825591602001919060010190613208565b5b5090506132319190613366565b5090565b828054828255906000526020600020908101928215613271579160200282015b82811115613270578251825591602001919060010190613255565b5b50905061327e9190613366565b5090565b828054600181600116156101000203166002900490600052602060002090601f016020900481019282601f106132c357805160ff19168380011785556132f1565b828001600101855582156132f1579182015b828111156132f05782518255916020019190600101906132d5565b5b5090506132fe9190613366565b5090565b604051806101200160405280600073ffffffffffffffffffffffffffffffffffffffff168152602001600081526020016000815260200160008152602001600081526020016000815260200160008152602001600015158152602001606081525090565b61338891905b8082111561338457600081600090555060010161336c565b5090565b90565b60008135905061339a8161490a565b92915050565b600082601f8301126133b157600080fd5b81356133c46133bf8261471b565b6146ee565b915081818352602084019350602081019050838560208402820111156133e957600080fd5b60005b8381101561341957816133ff8882613477565b8452602084019350602083019250506001810190506133ec565b5050505092915050565b600082601f83011261343457600080fd5b813561344761344282614743565b6146ee565b9150808252602083016020830185838301111561346357600080fd5b61346e8382846148b7565b50505092915050565b60008135905061348681614921565b92915050565b60006020828403121561349e57600080fd5b60006134ac8482850161338b565b91505092915050565b6000602082840312156134c757600080fd5b600082013567ffffffffffffffff8111156134e157600080fd5b6134ed84828501613423565b91505092915050565b6000806040838503121561350957600080fd5b600083013567ffffffffffffffff81111561352357600080fd5b61352f85828601613423565b925050602083013567ffffffffffffffff81111561354c57600080fd5b61355885828601613423565b9150509250929050565b60008060006060848603121561357757600080fd5b600084013567ffffffffffffffff81111561359157600080fd5b61359d86828701613423565b935050602084013567ffffffffffffffff8111156135ba57600080fd5b6135c686828701613423565b92505060406135d78682870161338b565b9150509250925092565b6000806000606084860312156135f657600080fd5b600084013567ffffffffffffffff81111561361057600080fd5b61361c86828701613423565b935050602084013567ffffffffffffffff81111561363957600080fd5b61364586828701613423565b925050604061365686828701613477565b9150509250925092565b6000806040838503121561367357600080fd5b600083013567ffffffffffffffff81111561368d57600080fd5b61369985828601613423565b92505060206136aa85828601613477565b9150509250929050565b6000806000606084860312156136c957600080fd5b600084013567ffffffffffffffff8111156136e357600080fd5b6136ef86828701613423565b935050602061370086828701613477565b925050604061371186828701613477565b9150509250925092565b600080600080600060a0868803121561373357600080fd5b600086013567ffffffffffffffff81111561374d57600080fd5b61375988828901613423565b955050602061376a88828901613477565b945050604061377b88828901613477565b935050606061378c88828901613477565b925050608061379d88828901613477565b9150509295509295909350565b600080600080600060a086880312156137c257600080fd5b60006137d088828901613477565b955050602086013567ffffffffffffffff8111156137ed57600080fd5b6137f988828901613423565b945050604086013567ffffffffffffffff81111561381657600080fd5b613822888289016133a0565b935050606086013567ffffffffffffffff81111561383f57600080fd5b61384b88828901613423565b925050608086013567ffffffffffffffff81111561386857600080fd5b61387488828901613423565b9150509295509295909350565b600061388d83836138c5565b60208301905092915050565b60006138a5838361430d565b905092915050565b60006138b9838361439d565b60208301905092915050565b6138ce8161485d565b82525050565b60006138df8261479f565b6138e981856147fd565b93506138f48361476f565b8060005b8381101561392557815161390c8882613881565b9750613917836147d6565b9250506001810190506138f8565b5085935050505092915050565b600061393d826147aa565b613947818561480e565b9350836020820285016139598561477f565b8060005b8581101561399557848403895281516139768582613899565b9450613981836147e3565b925060208a0199505060018101905061395d565b50829750879550505050505092915050565b60006139b2826147b5565b6139bc818561481f565b93506139c78361478f565b8060005b838110156139f85781516139df88826138ad565b97506139ea836147f0565b9250506001810190506139cb565b5085935050505092915050565b613a0e81614881565b82525050565b613a1d81614881565b82525050565b6000613a2e826147cb565b613a388185614852565b9350613a488185602086016148c6565b80840191505092915050565b6000613a5f826147c0565b613a698185614830565b9350613a798185602086016148c6565b613a82816148f9565b840191505092915050565b6000613a9a601e83614841565b91507f4572726f723a20596f7520617265206e6f7420726567697374657265642100006000830152602082019050919050565b6000613ada601c83614841565b91507f4572726f723a20496e76616c69642052657175657374657220494421000000006000830152602082019050919050565b6000613b1a602183614841565b91507f4572726f723a20596f752073686f756c6420626520612050687973696369616e60008301527f21000000000000000000000000000000000000000000000000000000000000006020830152604082019050919050565b6000613b80602883614841565b91507f596f752061726520616c7265616479207265676973746572656420617320612060008301527f50617469656e74210000000000000000000000000000000000000000000000006020830152604082019050919050565b6000613be6601f83614841565b91507f546865204163636f756e7420697320616c726561647920696e76616c696421006000830152602082019050919050565b6000613c26601c83614841565b91507f4572726f723a20496e766c6169642050687973696369616e20494421000000006000830152602082019050919050565b6000613c66601d83614841565b91507f4572726f723a20596f7520617265206e6f7420612050617469656e74210000006000830152602082019050919050565b6000613ca6603b83614841565b91507f596f7520617265206e6f7420617574686f72697a656420746f206d616e69707560008301527f6c61746520746869732070617469656e742773207265636f72647300000000006020830152604082019050919050565b6000613d0c602a83614841565b91507f596f752061726520616c7265616479207265676973746572656420617320612060008301527f50687973696369616e21000000000000000000000000000000000000000000006020830152604082019050919050565b6000613d72602283614841565b91507f4572726f723a205265636f726420697320616c726561647920496e6c76616c6960008301527f64210000000000000000000000000000000000000000000000000000000000006020830152604082019050919050565b6000613dd8602583614841565b91507f596f7520617265206e6f7420746865206f776e6572206f66207468652061636360008301527f6f756e74210000000000000000000000000000000000000000000000000000006020830152604082019050919050565b6000613e3e603083614841565b91507f4572726f723a20596f7520617265206e6f7420617574686f72697a656420746f60008301527f20646f207468697320616374696f6e21000000000000000000000000000000006020830152604082019050919050565b6000613ea4601a83614841565b91507f4572726f723a20496e76616c69642050617469656e74204944210000000000006000830152602082019050919050565b6000613ee4600f83614841565b91507f496e76616c6964204163636f756e7400000000000000000000000000000000006000830152602082019050919050565b6000613f24603283614841565b91507f546865205265636f7264204164646974696f6e207472616e73616374696f6e2060008301527f636f73747320302e3031206574686572732100000000000000000000000000006020830152604082019050919050565b6000613f8a601e83614841565b91507f5468652055706461746520636f73747320302e303035206574686572732100006000830152602082019050919050565b6000613fca601c83614841565b91507f4572726f723a20496e76616c69642050687973696369616e20494421000000006000830152602082019050919050565b600061400a603283614841565b91507f546865205265636f7264204164646974696f6e207472616e73616374696f6e2060008301527f636f73747320302e3135206574686572732100000000000000000000000000006020830152604082019050919050565b6000614070602583614841565b91507f54686520417574686f72697a6174696f6e20636f73747320302e30323520657460008301527f68657273210000000000000000000000000000000000000000000000000000006020830152604082019050919050565b60006140d6603283614841565b91507f546865205265636f7264204164646974696f6e207472616e73616374696f6e2060008301527f636f73747320302e3235206574686572732100000000000000000000000000006020830152604082019050919050565b60006101208301600083015161414860008601826138c5565b50602083015161415b602086018261439d565b50604083015161416e604086018261439d565b506060830151614181606086018261439d565b506080830151614194608086018261439d565b5060a08301516141a760a086018261439d565b5060c08301516141ba60c086018261439d565b5060e08301516141cd60e0860182613a05565b506101008301518482036101008601526141e78282613932565b9150508091505092915050565b600060c08301600083015161420c60008601826138c5565b50602083015161421f602086018261439d565b506040830151614232604086018261439d565b5060608301516142456060860182613a05565b506080830151614258608086018261439d565b5060a083015184820360a086015261427082826138d4565b9150508091505092915050565b600060c083016000830151614295600086018261439d565b5060208301516142a8602086018261439d565b5060408301516142bb60408601826138c5565b50606083015184820360608601526142d38282613a54565b91505060808301516142e86080860182613a05565b5060a083015184820360a086015261430082826139a7565b9150508091505092915050565b600060c083016000830151614325600086018261439d565b506020830151614338602086018261439d565b50604083015161434b60408601826138c5565b50606083015184820360608601526143638282613a54565b91505060808301516143786080860182613a05565b5060a083015184820360a086015261439082826139a7565b9150508091505092915050565b6143a6816148ad565b82525050565b6143b5816148ad565b82525050565b60006143c78284613a23565b915081905092915050565b60006020820190506143e76000830184613a14565b92915050565b6000602082019050818103600083015261440681613a8d565b9050919050565b6000602082019050818103600083015261442681613acd565b9050919050565b6000602082019050818103600083015261444681613b0d565b9050919050565b6000602082019050818103600083015261446681613b73565b9050919050565b6000602082019050818103600083015261448681613bd9565b9050919050565b600060208201905081810360008301526144a681613c19565b9050919050565b600060208201905081810360008301526144c681613c59565b9050919050565b600060208201905081810360008301526144e681613c99565b9050919050565b6000602082019050818103600083015261450681613cff565b9050919050565b6000602082019050818103600083015261452681613d65565b9050919050565b6000602082019050818103600083015261454681613dcb565b9050919050565b6000602082019050818103600083015261456681613e31565b9050919050565b6000602082019050818103600083015261458681613e97565b9050919050565b600060208201905081810360008301526145a681613ed7565b9050919050565b600060208201905081810360008301526145c681613f17565b9050919050565b600060208201905081810360008301526145e681613f7d565b9050919050565b6000602082019050818103600083015261460681613fbd565b9050919050565b6000602082019050818103600083015261462681613ffd565b9050919050565b6000602082019050818103600083015261464681614063565b9050919050565b60006020820190508181036000830152614666816140c9565b9050919050565b60006020820190508181036000830152614687818461412f565b905092915050565b600060208201905081810360008301526146a981846141f4565b905092915050565b600060208201905081810360008301526146cb818461427d565b905092915050565b60006020820190506146e860008301846143ac565b92915050565b6000604051905081810181811067ffffffffffffffff8211171561471157600080fd5b8060405250919050565b600067ffffffffffffffff82111561473257600080fd5b602082029050602081019050919050565b600067ffffffffffffffff82111561475a57600080fd5b601f19601f8301169050602081019050919050565b6000819050602082019050919050565b6000819050602082019050919050565b6000819050602082019050919050565b600081519050919050565b600081519050919050565b600081519050919050565b600081519050919050565b600081519050919050565b6000602082019050919050565b6000602082019050919050565b6000602082019050919050565b600082825260208201905092915050565b600082825260208201905092915050565b600082825260208201905092915050565b600082825260208201905092915050565b600082825260208201905092915050565b600081905092915050565b60006148688261488d565b9050919050565b600061487a8261488d565b9050919050565b60008115159050919050565b600073ffffffffffffffffffffffffffffffffffffffff82169050919050565b6000819050919050565b82818337600083830152505050565b60005b838110156148e45780820151818401526020810190506148c9565b838111156148f3576000848401525b50505050565b6000601f19601f8301169050919050565b6149138161486f565b811461491e57600080fd5b50565b61492a816148ad565b811461493557600080fd5b5056fea365627a7a72315820a38fec440c3b9016e871294f5a98da7f2c85104b0363dd510f98f8a1658e6eab6c6578706572696d656e74616cf564736f6c63430005100040",
  "source": "// SPDX-License-Identifier: MIT\r\npragma solidity >=0.4.21 <0.7.0;\r\n// ABIEncoder used for returning Objects of structs\r\npragma experimental ABIEncoderV2;\r\n\r\n// The smart contract defines a list of Patients and Physicians\r\n// Patients have a list of their own EHR\r\n// Physicians have a list of Patients' keys used for manipulating Patients' EHRs\r\n// A Patient must provide authorization for the Physician before being able to\r\n// manipulate the Patient's EHRs..\r\ncontract Network {\r\n    // Keeps track of the Total Physicians and Patients on the Network\r\n    uint256 totalPhysicians = 0;\r\n    uint256 totalPatients = 0;\r\n\r\n    uint256 totalInvalidPhysicians = 0;\r\n    uint256 totalInvalidPatients = 0;\r\n\r\n    uint256 totalRecords = 0;\r\n    uint256 totalFaultRecords = 0;\r\n\r\n    struct Record {\r\n        uint256 id;\r\n        uint256 date_time;\r\n        address phyicianRef;\r\n        string description;\r\n        bool is_fault;\r\n        uint256[] symptoms;\r\n        // Setting a record as fault is equivalent to deleting it\r\n        // Records should not be removed compelety and the ledger\r\n        // should contain the faulty and verified Records, only that\r\n        // the faulty Record will be invisible to users..\r\n    }\r\n\r\n    // Patient:\r\n    // ID which is the address of the ethereum account\r\n    // CurrentRecord to keep track of the records to be able to add and remove records\r\n    // RecordsCount to show the total number of Records available for a Patient\r\n    // is_valid to check whether the Patient is existing on the network or banned\r\n    // Array of Records Objects from the Record Struct\r\n    struct Patient {\r\n        address id;\r\n        uint256 DOB;\r\n        uint256 bloodGrp;\r\n        uint256 height;\r\n        uint256 weight;\r\n        uint256 currentRecord;\r\n        uint256 recordsCount;\r\n        bool is_valid;\r\n        Record[] records;\r\n    }\r\n\r\n    // Physician:\r\n    // ID which is the address of the ethereum account\r\n    // Each Physician has his/her own patient\r\n    // totalPatients to keep track of the patients available\r\n    // is_valid to check whether the Physician is existing on the network or banned\r\n    struct Physician {\r\n        address id;\r\n        uint256 DOB;\r\n        uint256 employedSince;\r\n        bool is_valid;\r\n        uint256 totalPatients;\r\n        address[] patients;\r\n    }\r\n\r\n    mapping (address => Patient) patients;\r\n    mapping (address => Physician) physicians;\r\n    // Storing addresses as strings for later reference..\r\n    mapping (string => address) refAddresses;\r\n\r\n    uint recordFees = 0.01 ether; // Equivalent to 10000000000000000 wei\r\n    uint authFees = 0.025 ether; // Equivalent to 25000000000000000 wei\r\n    uint updateFees = 0.005 ether; // Equivalent to 5000000000000000 wei\r\n    uint patientRegistrationFees = 0.15 ether; // Equivalent to 150000000000000000 wei\r\n    uint physicianRegistrationFees = 0.25 ether; // Equivalent to 250000000000000000 wei\r\n\r\n    function sendAuthorizationEther(address payable _receiver) public {\r\n        _receiver.transfer(0.025 ether);\r\n    }\r\n\r\n    // Verifies the Validity/Existance of the Sender on the Network..\r\n    function isValidPatient(string memory _address) public view returns (bool) {\r\n        address _add = refAddresses[_address];\r\n        return patients[_add].is_valid;\r\n    }\r\n\r\n    // Verifies the Validity/Existance of the Sender on the Network..\r\n    function isValidPhysician(string memory _address) public view returns (bool) {\r\n        address _add = refAddresses[_address];\r\n        return physicians[_add].is_valid;\r\n    }\r\n\r\n    // Checks User Type for providing the correct Dashboard according to the User Type..\r\n    function getUserType() public view returns (uint256) {\r\n        if (patients[msg.sender].is_valid) {\r\n            return 0;\r\n        }\r\n        if (physicians[msg.sender].is_valid) {\r\n            return 1;\r\n        }\r\n        // Invalid or Non-existing Account\r\n        return 2;\r\n    }\r\n\r\n    // Checks whether the physician is authorized to manipulate a patient's records..\r\n    function isAuthorized(string memory _requester, string memory _patient) public view returns (bool) {\r\n        address _requester_address = refAddresses[_requester];\r\n        address _patient_address = refAddresses[_patient];\r\n\r\n        // If the Requester is a Patient not a Physician..\r\n        require(physicians[_requester_address].is_valid, \"Error: You should be a Physician!\");\r\n        // If an injected value is discovered instead of the actual sender..\r\n        require(msg.sender == _requester_address, \"Error: Invalid Requester ID!\");\r\n\r\n        if (physicians[_requester_address].is_valid) {\r\n            for (uint256 i = 0; i < physicians[_requester_address].totalPatients; i++) {\r\n                if (physicians[_requester_address].patients[i] == _patient_address) {\r\n                    return true;\r\n                }\r\n            }\r\n            return false;\r\n        }\r\n    }\r\n\r\n    // Registering a Physician using his/her wallet address after verifying his practicing lisence..\r\n    function registerPhysician(string memory _address, uint256 _DOB, uint256 _employedSince) public payable {\r\n        require(!patients[msg.sender].is_valid, 'You are already registered as a Patient!');\r\n        require(!physicians[msg.sender].is_valid, 'You are already registered as a Physician!');\r\n        if (msg.value != physicianRegistrationFees) {\r\n            revert('The Record Addition transaction costs 0.25 ethers!');\r\n        }\r\n        physicians[msg.sender].id = msg.sender;\r\n        physicians[msg.sender].DOB = _DOB;\r\n        physicians[msg.sender].employedSince = _employedSince;\r\n        physicians[msg.sender].is_valid = true;\r\n        physicians[msg.sender].totalPatients = 0;\r\n        totalPhysicians++;\r\n\r\n        // Add the Physician Address as a String format for later access..\r\n        refAddresses[_address] = msg.sender;\r\n    }\r\n\r\n    // Registering a Patient using his/her wallet address\r\n    function registerPatient(string memory _address, uint256 _DOB, uint256 _bloodGrp, uint256 _height, uint256 _weight) public payable {\r\n        require(!patients[msg.sender].is_valid, 'You are already registered as a Patient!');\r\n        require(!physicians[msg.sender].is_valid, 'You are already registered as a Physician!');\r\n        if (msg.value != patientRegistrationFees) {\r\n            revert('The Record Addition transaction costs 0.15 ethers!');\r\n        }\r\n        patients[msg.sender].id = msg.sender;\r\n        patients[msg.sender].DOB = _DOB;\r\n        patients[msg.sender].bloodGrp = _bloodGrp;\r\n        patients[msg.sender].height = _height;\r\n        patients[msg.sender].weight = _weight;\r\n        patients[msg.sender].is_valid = true;\r\n        patients[msg.sender].currentRecord = 0;\r\n        patients[msg.sender].recordsCount = 0;\r\n        totalPatients++;\r\n\r\n        // Add the Patient Address as a String format for later access..\r\n        refAddresses[_address] = msg.sender;\r\n    }\r\n\r\n    // A patient could authorize the physician to manipulate his/her EHR..\r\n    function authorizePhysician(string memory pId, string memory patId, address payable _pId) public payable {\r\n        address _physician_address = refAddresses[pId];\r\n        address _patient_address = refAddresses[patId];\r\n        require(physicians[_physician_address].is_valid, \"Error: You are not a Patient!\");\r\n        require(patients[_patient_address].is_valid, \"Error: You are not registered!\");\r\n        if (msg.value != authFees) {\r\n            revert('The Authorization costs 0.025 ethers!');\r\n        }\r\n        physicians[_physician_address].patients.push(_patient_address);\r\n        physicians[_physician_address].totalPatients++;\r\n        sendAuthorizationEther(_pId);\r\n    }\r\n\r\n    // Removing the authorization of the physician when modification happens to a patient's records..\r\n    function removeAuthorization(string memory pId, string memory patId) public {\r\n        address _physician_address = refAddresses[pId];\r\n        address _patient_address = refAddresses[patId];\r\n        require(physicians[_physician_address].is_valid, \"Error: You are not a Patient!\");\r\n        require(patients[_patient_address].is_valid, \"Error: You are not registered!\");\r\n        require(isAuthorized(pId, patId), \"Error: You are not authorized to do this action!\");\r\n        for (uint256 i = 0; i < physicians[_physician_address].totalPatients; i++) {\r\n            if (physicians[_physician_address].patients[i] == _patient_address) {\r\n                delete physicians[_physician_address].patients[i];\r\n                return;\r\n            }\r\n        }\r\n    }\r\n\r\n    function getPatient(string memory _address) public view returns (Patient memory) {\r\n        address _patient_address = refAddresses[_address];\r\n        require(patients[_patient_address].is_valid, \"Invalid Account\");\r\n        return patients[_patient_address];\r\n    }\r\n\r\n    function getPhysician(string memory _pId) public view returns (Physician memory) {\r\n        address _physician_address = refAddresses[_pId];\r\n        require(physicians[_physician_address].is_valid, \"Invalid Account\");\r\n        return physicians[_physician_address];\r\n    }\r\n\r\n    // Deactivating a Patient or a Physician is equivelant to Deleting his/her account..\r\n    function deactivatePatient(string memory _patId) public {\r\n        address _patient_address = refAddresses[_patId];\r\n        require(patients[_patient_address].id == msg.sender, \"You are not the owner of the account!\");\r\n        require(patients[_patient_address].is_valid, \"The Account is already invalid!\");\r\n        patients[_patient_address].is_valid = false;\r\n        totalInvalidPatients++;\r\n        totalPatients--;\r\n    }\r\n    function deactivatePhysician(string memory _pId) public {\r\n        address _physician_address = refAddresses[_pId];\r\n        require(physicians[_physician_address].id == msg.sender, \"You are not the owner of the account!\");\r\n        require(physicians[_physician_address].is_valid, \"The Account is already invalid!\");\r\n        physicians[_physician_address].is_valid = false;\r\n        totalInvalidPhysicians++;\r\n        totalPhysicians--;\r\n    }\r\n\r\n    // Adds New Record to the Records Array by referring to the Patient ID and Physician ID for later reference\r\n    function addRecord(uint256 _d_t, string memory _d, uint256[] memory _sym, string memory _patId, string memory _pId) public payable {\r\n        address _patient_address = refAddresses[_patId];\r\n        address _physician_address = refAddresses[_pId];\r\n        require(msg.sender == _physician_address, \"Error: Invalid Physician ID!\");\r\n        require(patients[_patient_address].is_valid, \"Error: Invalid Patient ID!\");\r\n        if (msg.value != recordFees) {\r\n            revert('The Record Addition transaction costs 0.01 ethers!');\r\n        }\r\n        if (isAuthorized(_pId, _patId)) {\r\n            uint256 _a = patients[_patient_address].currentRecord;\r\n            Record memory record = Record(_a, _d_t, _physician_address, _d, false, _sym);\r\n            patients[_patient_address].records.push(record);\r\n            patients[_patient_address].currentRecord++;\r\n            patients[_patient_address].recordsCount++;\r\n            totalRecords++;\r\n            removeAuthorization(_pId, _patId);\r\n        }\r\n        else {\r\n            revert(\"You are not authorized to manipulate this patient's records\");\r\n        }\r\n    }\r\n\r\n    // Updates Existing Record by referring to the patient ID along with the record position in the records array\r\n    function updateRecord(uint256 _id, string memory _d, uint256[] memory _sym, string memory _patId, string memory _pId) public payable {\r\n        address _patient_address = refAddresses[_patId];\r\n        address _physician_address = refAddresses[_pId];\r\n        require(msg.sender == _physician_address, \"Error: Invalid Physician ID!\");\r\n        require(patients[_patient_address].is_valid, \"Error: Invalid Patient ID!\");\r\n        if (msg.value != updateFees) {\r\n            revert('The Update costs 0.005 ethers!');\r\n        }\r\n        if (isAuthorized(_pId, _patId)) {\r\n            patients[_patient_address].records[_id].symptoms = _sym;\r\n            patients[_patient_address].records[_id].description = _d;\r\n            removeAuthorization(_pId, _patId);\r\n        }\r\n    }\r\n\r\n    // Setting the record as Fault is equivalent to marking the record as deleted..\r\n    function setRecordFault(string memory _patId, string memory _pId, uint256 recId) public payable {\r\n        address _patient_address = refAddresses[_patId];\r\n        address _physician_address = refAddresses[_pId];\r\n        require(msg.sender == _physician_address, \"Error: Invlaid Physician ID!\");\r\n        require(patients[_patient_address].is_valid, \"Error: Invalid Patient ID!\");\r\n        if (msg.value != updateFees) {\r\n            revert('The Update costs 0.005 ethers!');\r\n        }\r\n        require(!patients[_patient_address].records[recId].is_fault, \"Error: Record is already Inlvalid!\");\r\n        if (isAuthorized(_pId, _patId)) {\r\n            patients[_patient_address].records[recId].is_fault = true;\r\n            patients[_patient_address].recordsCount--;\r\n            totalFaultRecords++;\r\n            removeAuthorization(_pId, _patId);\r\n        }\r\n    }\r\n\r\n    // Returns the total Records count of the patient execluding the faulty ones..\r\n    function getRecordsCount(string memory _patId) public view returns (uint256) {\r\n        address _patient_address = refAddresses[_patId];\r\n        return patients[_patient_address].recordsCount;\r\n    }\r\n\r\n    // Solidity can not return array of objects or strings, could only return array of bytes\r\n    // Returning in solidity does not consume fees for a single or multiple transactions done unless modification\r\n    // of data stored is made..\r\n    // Retreiving All Records is handled in the middleware\r\n    function getRecord(string memory _patId, uint256 recId) public view returns (Record memory) {\r\n        address _patient_address = refAddresses[_patId];\r\n        return patients[_patient_address].records[recId];\r\n    }\r\n\r\n    // Get the current network state..\r\n    function getTotalPhysicians() public view returns (uint256) {\r\n        return totalPhysicians;\r\n    }\r\n    function getTotalPatients() public view returns (uint256) {\r\n        return totalPatients;\r\n    }\r\n    function getTotalFaultRecords() public view returns (uint256) {\r\n        return totalFaultRecords;\r\n    }\r\n    function getTotalRecords() public view returns (uint256) {\r\n        return totalRecords;\r\n    }\r\n}",
  "sourcePath": "C:\\Users\\o_k_s\\OneDrive\\Documents\\GitHub\\final-eth-klinka\\contracts\\Network.sol",
  "compiler": {
    "name": "solc",
    "version": "0.5.16+commit.9c3226ce.Emscripten.clang"
  },
  "schemaVersion": "3.1.0",
  "updatedAt": "2020-08-10T11:27:54.309Z",
  "networkType": "ethereum",
  "devdoc": {
    "methods": {}
  },
  "userdoc": {
    "methods": {}
  }
}