{
  "contractName": "Network",
  "abi": [
    {
      "constant": false,
      "inputs": [
        {
          "internalType": "string",
          "name": "id",
          "type": "string"
        },
        {
          "internalType": "string",
          "name": "c",
          "type": "string"
        },
        {
          "internalType": "string",
          "name": "p",
          "type": "string"
        },
        {
          "internalType": "string",
          "name": "d",
          "type": "string"
        },
        {
          "internalType": "string",
          "name": "s",
          "type": "string"
        },
        {
          "internalType": "string",
          "name": "sev",
          "type": "string"
        },
        {
          "internalType": "string",
          "name": "n",
          "type": "string"
        }
      ],
      "name": "nR",
      "outputs": [],
      "payable": false,
      "stateMutability": "nonpayable",
      "type": "function"
    },
    {
      "constant": true,
      "inputs": [
        {
          "internalType": "string",
          "name": "_id",
          "type": "string"
        }
      ],
      "name": "gR",
      "outputs": [
        {
          "internalType": "string",
          "name": "",
          "type": "string"
        },
        {
          "internalType": "string",
          "name": "",
          "type": "string"
        },
        {
          "internalType": "string",
          "name": "",
          "type": "string"
        },
        {
          "internalType": "string",
          "name": "",
          "type": "string"
        },
        {
          "internalType": "string",
          "name": "",
          "type": "string"
        },
        {
          "internalType": "string",
          "name": "",
          "type": "string"
        }
      ],
      "payable": false,
      "stateMutability": "view",
      "type": "function"
    },
    {
      "constant": false,
      "inputs": [
        {
          "internalType": "string",
          "name": "_id",
          "type": "string"
        }
      ],
      "name": "setAsFault",
      "outputs": [],
      "payable": false,
      "stateMutability": "nonpayable",
      "type": "function"
    }
  ],
  "bytecode": "0x608060405234801561001057600080fd5b50611538806100206000396000f3fe608060405234801561001057600080fd5b50600436106100415760003560e01c8063133117e11461004657806318f5cc42146101015780637834ecf014610451575b600080fd5b6100ff6004803603602081101561005c57600080fd5b810190808035906020019064010000000081111561007957600080fd5b82018360208201111561008b57600080fd5b803590602001918460018302840111640100000000831117156100ad57600080fd5b91908080601f016020809104026020016040519081016040528093929190818152602001838380828437600081840152601f19601f820116905080830192505050505050509192919290505050610896565b005b6101ba6004803603602081101561011757600080fd5b810190808035906020019064010000000081111561013457600080fd5b82018360208201111561014657600080fd5b8035906020019184600183028401116401000000008311171561016857600080fd5b91908080601f016020809104026020016040519081016040528093929190818152602001838380828437600081840152601f19601f82011690508083019250505050505050919291929050505061091e565b6040518080602001806020018060200180602001806020018060200187810387528d818151815260200191508051906020019080838360005b8381101561020e5780820151818401526020810190506101f3565b50505050905090810190601f16801561023b5780820380516001836020036101000a031916815260200191505b5087810386528c818151815260200191508051906020019080838360005b83811015610274578082015181840152602081019050610259565b50505050905090810190601f1680156102a15780820380516001836020036101000a031916815260200191505b5087810385528b818151815260200191508051906020019080838360005b838110156102da5780820151818401526020810190506102bf565b50505050905090810190601f1680156103075780820380516001836020036101000a031916815260200191505b5087810384528a818151815260200191508051906020019080838360005b83811015610340578082015181840152602081019050610325565b50505050905090810190601f16801561036d5780820380516001836020036101000a031916815260200191505b50878103835289818151815260200191508051906020019080838360005b838110156103a657808201518184015260208101905061038b565b50505050905090810190601f1680156103d35780820380516001836020036101000a031916815260200191505b50878103825288818151815260200191508051906020019080838360005b8381101561040c5780820151818401526020810190506103f1565b50505050905090810190601f1680156104395780820380516001836020036101000a031916815260200191505b509c5050505050505050505050505060405180910390f35b610894600480360360e081101561046757600080fd5b810190808035906020019064010000000081111561048457600080fd5b82018360208201111561049657600080fd5b803590602001918460018302840111640100000000831117156104b857600080fd5b91908080601f016020809104026020016040519081016040528093929190818152602001838380828437600081840152601f19601f8201169050808301925050505050505091929192908035906020019064010000000081111561051b57600080fd5b82018360208201111561052d57600080fd5b8035906020019184600183028401116401000000008311171561054f57600080fd5b91908080601f016020809104026020016040519081016040528093929190818152602001838380828437600081840152601f19601f820116905080830192505050505050509192919290803590602001906401000000008111156105b257600080fd5b8201836020820111156105c457600080fd5b803590602001918460018302840111640100000000831117156105e657600080fd5b91908080601f016020809104026020016040519081016040528093929190818152602001838380828437600081840152601f19601f8201169050808301925050505050505091929192908035906020019064010000000081111561064957600080fd5b82018360208201111561065b57600080fd5b8035906020019184600183028401116401000000008311171561067d57600080fd5b91908080601f016020809104026020016040519081016040528093929190818152602001838380828437600081840152601f19601f820116905080830192505050505050509192919290803590602001906401000000008111156106e057600080fd5b8201836020820111156106f257600080fd5b8035906020019184600183028401116401000000008311171561071457600080fd5b91908080601f016020809104026020016040519081016040528093929190818152602001838380828437600081840152601f19601f8201169050808301925050505050505091929192908035906020019064010000000081111561077757600080fd5b82018360208201111561078957600080fd5b803590602001918460018302840111640100000000831117156107ab57600080fd5b91908080601f016020809104026020016040519081016040528093929190818152602001838380828437600081840152601f19601f8201169050808301925050505050505091929192908035906020019064010000000081111561080e57600080fd5b82018360208201111561082057600080fd5b8035906020019184600183028401116401000000008311171561084257600080fd5b91908080601f016020809104026020016040519081016040528093929190818152602001838380828437600081840152601f19601f820116905080830192505050505050509192919290505050610996565b005b60016000826040518082805190602001908083835b602083106108ce57805182526020820191506020810190506020830392506108ab565b6001836020036101000a038019825116818451168082178552505050505050905001915050908152602001604051809103902060070160006101000a81548160ff02191690831515021790555050565b606080606080606080606061093288610a68565b9050606061093f89610b76565b9050606061094c8a610c84565b905060606109598b610d92565b905060606109668c610ea0565b905060606109738d610fae565b90508585858585859b509b509b509b509b509b5050505050505091939550919395565b61099f876110bc565b6109a98787611140565b6109b387866111c5565b6109bd878561124a565b6109c787846112cf565b6109d18783611354565b6109db87826113d9565b600080886040518082805190602001908083835b60208310610a1257805182526020820191506020810190506020830392506109ef565b6001836020036101000a038019825116818451168082178552505050505050905001915050908152602001604051809103902060070160006101000a81548160ff02191690831515021790555050505050505050565b60606000826040518082805190602001908083835b60208310610aa05780518252602082019150602081019050602083039250610a7d565b6001836020036101000a03801982511681845116808217855250505050505090500191505090815260200160405180910390206001018054600181600116156101000203166002900480601f016020809104026020016040519081016040528092919081815260200182805460018160011615610100020316600290048015610b6a5780601f10610b3f57610100808354040283529160200191610b6a565b820191906000526020600020905b815481529060010190602001808311610b4d57829003601f168201915b50505050509050919050565b60606000826040518082805190602001908083835b60208310610bae5780518252602082019150602081019050602083039250610b8b565b6001836020036101000a03801982511681845116808217855250505050505090500191505090815260200160405180910390206002018054600181600116156101000203166002900480601f016020809104026020016040519081016040528092919081815260200182805460018160011615610100020316600290048015610c785780601f10610c4d57610100808354040283529160200191610c78565b820191906000526020600020905b815481529060010190602001808311610c5b57829003601f168201915b50505050509050919050565b60606000826040518082805190602001908083835b60208310610cbc5780518252602082019150602081019050602083039250610c99565b6001836020036101000a03801982511681845116808217855250505050505090500191505090815260200160405180910390206003018054600181600116156101000203166002900480601f016020809104026020016040519081016040528092919081815260200182805460018160011615610100020316600290048015610d865780601f10610d5b57610100808354040283529160200191610d86565b820191906000526020600020905b815481529060010190602001808311610d6957829003601f168201915b50505050509050919050565b60606000826040518082805190602001908083835b60208310610dca5780518252602082019150602081019050602083039250610da7565b6001836020036101000a03801982511681845116808217855250505050505090500191505090815260200160405180910390206004018054600181600116156101000203166002900480601f016020809104026020016040519081016040528092919081815260200182805460018160011615610100020316600290048015610e945780601f10610e6957610100808354040283529160200191610e94565b820191906000526020600020905b815481529060010190602001808311610e7757829003601f168201915b50505050509050919050565b60606000826040518082805190602001908083835b60208310610ed85780518252602082019150602081019050602083039250610eb5565b6001836020036101000a03801982511681845116808217855250505050505090500191505090815260200160405180910390206005018054600181600116156101000203166002900480601f016020809104026020016040519081016040528092919081815260200182805460018160011615610100020316600290048015610fa25780601f10610f7757610100808354040283529160200191610fa2565b820191906000526020600020905b815481529060010190602001808311610f8557829003601f168201915b50505050509050919050565b60606000826040518082805190602001908083835b60208310610fe65780518252602082019150602081019050602083039250610fc3565b6001836020036101000a03801982511681845116808217855250505050505090500191505090815260200160405180910390206006018054600181600116156101000203166002900480601f0160208091040260200160405190810160405280929190818152602001828054600181600116156101000203166002900480156110b05780601f10611085576101008083540402835291602001916110b0565b820191906000526020600020905b81548152906001019060200180831161109357829003601f168201915b50505050509050919050565b806000826040518082805190602001908083835b602083106110f357805182526020820191506020810190506020830392506110d0565b6001836020036101000a0380198251168184511680821785525050505050509050019150509081526020016040518091039020600001908051906020019061113c92919061145e565b5050565b806000836040518082805190602001908083835b602083106111775780518252602082019150602081019050602083039250611154565b6001836020036101000a038019825116818451168082178552505050505050905001915050908152602001604051809103902060010190805190602001906111c092919061145e565b505050565b806000836040518082805190602001908083835b602083106111fc57805182526020820191506020810190506020830392506111d9565b6001836020036101000a0380198251168184511680821785525050505050509050019150509081526020016040518091039020600201908051906020019061124592919061145e565b505050565b806000836040518082805190602001908083835b60208310611281578051825260208201915060208101905060208303925061125e565b6001836020036101000a038019825116818451168082178552505050505050905001915050908152602001604051809103902060030190805190602001906112ca92919061145e565b505050565b806000836040518082805190602001908083835b6020831061130657805182526020820191506020810190506020830392506112e3565b6001836020036101000a0380198251168184511680821785525050505050509050019150509081526020016040518091039020600401908051906020019061134f92919061145e565b505050565b806000836040518082805190602001908083835b6020831061138b5780518252602082019150602081019050602083039250611368565b6001836020036101000a038019825116818451168082178552505050505050905001915050908152602001604051809103902060050190805190602001906113d492919061145e565b505050565b806000836040518082805190602001908083835b6020831061141057805182526020820191506020810190506020830392506113ed565b6001836020036101000a0380198251168184511680821785525050505050509050019150509081526020016040518091039020600601908051906020019061145992919061145e565b505050565b828054600181600116156101000203166002900490600052602060002090601f016020900481019282601f1061149f57805160ff19168380011785556114cd565b828001600101855582156114cd579182015b828111156114cc5782518255916020019190600101906114b1565b5b5090506114da91906114de565b5090565b61150091905b808211156114fc5760008160009055506001016114e4565b5090565b9056fea265627a7a72315820d7a59538e774ad019f1fed6c0532f50b143aaf96bf81e4efa3368fe682453f1264736f6c63430005100032",
  "source": "// SPDX-License-Identifier: MIT\r\npragma solidity >=0.4.21 <0.7.0;\r\n\r\ncontract Network {\r\n    mapping(string => Record) records;\r\n    struct Record {\r\n        string _id;\r\n        string _clinic;\r\n        string _physician;\r\n        string _dateTime;\r\n        string _symptom;\r\n        string _severity;\r\n        string _additional_notes;\r\n        bool _isFault;\r\n    }\r\n    // Create a new record.\r\n    function createRecord(string memory _id) internal {records[_id]._id = _id;}\r\n    function setClinic(string memory _id, string memory _clinic) internal {records[_id]._clinic = _clinic;}\r\n    function setPhysician(string memory _id, string memory _physician) internal {records[_id]._physician = _physician;}\r\n    function setDateTime(string memory _id, string memory _dateTime) internal {records[_id]._dateTime = _dateTime;}\r\n    function setSymptom(string memory _id, string memory _symptom) internal {records[_id]._symptom = _symptom;}\r\n    function setSeverity(string memory _id, string memory _severity) internal {records[_id]._severity = _severity;}\r\n    function setAdditionalNotes(string memory _id, string memory _add_notes) internal {records[_id]._additional_notes = _add_notes;}\r\n    function nR(string memory id,string memory c,string memory p,string memory d,string memory s,string memory sev,string memory n) public {\r\n        createRecord(id);\r\n        setClinic(id, c);\r\n        setPhysician(id, p);\r\n        setDateTime(id, d);\r\n        setSymptom(id, s);\r\n        setSeverity(id, sev);\r\n        setAdditionalNotes(id, n);\r\n        records[id]._isFault = false;\r\n    }\r\n    // Get an existing Record\r\n    function getClinic(string memory _id) internal view returns (string memory) {return records[_id]._clinic;}\r\n    function getPhysician(string memory _id) internal view returns (string memory) {return records[_id]._physician;}\r\n    function getDateTime(string memory _id) internal view returns (string memory) {return records[_id]._dateTime;}\r\n    function getSymptom(string memory _id) internal view returns (string memory) {return records[_id]._symptom;}\r\n    function getSeverity(string memory _id) internal view returns (string memory) {return records[_id]._severity;}\r\n    function getAdditionalNotes(string memory _id) internal view returns (string memory) {return records[_id]._additional_notes;}\r\n    function gR(string memory _id) public view returns(string memory,string memory,string memory,string memory,string memory,string memory) {\r\n        string memory clinic = getClinic(_id);\r\n        string memory physician = getPhysician(_id);\r\n        string memory dateTime = getDateTime(_id);\r\n        string memory symptom = getSymptom(_id);\r\n        string memory severity = getSeverity(_id);\r\n        string memory add_notes = getAdditionalNotes(_id);\r\n        return(clinic, physician, dateTime, symptom, severity, add_notes);\r\n    }\r\n    // Setting Record as Fault\r\n    function setAsFault(string memory _id) public {\r\n        records[_id]._isFault = true;\r\n    }\r\n}",
  "sourcePath": "C:\\Users\\o_k_s\\OneDrive\\Documents\\GitHub\\final-eth-klinka\\contracts\\Network.sol",
  "compiler": {
    "name": "solc",
    "version": "0.5.16+commit.9c3226ce.Emscripten.clang"
  },
  "schemaVersion": "3.1.0",
  "updatedAt": "2020-07-01T18:06:39.018Z",
  "devdoc": {
    "methods": {}
  },
  "userdoc": {
    "methods": {}
  }
}